S01100004F70647261636874332E73726563AB
S113000045C000007EC00000B9C000005CC0000014
S11300105AC0000058C0000056C0000054C0000080
S113002052C0000050C000004EC000004CC0000090
S11300304AC0000048C0000046C0000044C00000A0
S113004042C0000040C000003EC000003CC00000B0
S11300503AC0000038C0000036C0000034C00000C0
S113006032C0000030C000002EC000002CC00000D0
S11300702AC0000028C0000026C0000024C00000E0
S113008022C0000020C000001EC0000011241FBEBA
S1130090CFEFD0E1DEBFCDBF11E0A0E0B1E0ECE4F2
S11300A0F2E000E00BBF02C007900D92A231B1074D
S11300B0D9F721E0A2E1B1E001C01D92A431B20759
S11300C0E1F799D0C1C09CCF181619066CF420E052
S11300D030E0EFECF7E03197F1F700C000002F5F5C
S11300E03F4F28173907A9F70895813191051CF06E
S11300F089EF82BB0895FC01E050FF4F808185BBEE
S113010008951F920F920FB60F9211240BB60F92FF
S11301102F933F934F935F936F937F938F939F930B
S1130120AF93BF93EF93FF938091120190911301CA
S113013001969093130180931201819B04C0109245
S11301401301109212018091120190911301CDDFDD
S11301508AE090E0B9DFFF91EF91BF91AF919F9159
S11301608F917F916F915F914F913F912F910F905C
S11301700BBE0F900FBE0F901F9018951F920F92F9
S11301800FB60F9211240BB60F922F933F934F93F8
S11301905F936F937F938F939F93AF93BF93EF93EB
S11301A0FF93809112019091130101979093130191
S11301B080931201809B04C01092130110921201CB
S11301C0809112019091130190DF8AE090E07CDF2E
S11301D0FF91EF91BF91AF919F918F917F916F911B
S11301E05F914F913F912F910F900BBE0F900FBED7
S11301F00F901F9018958FEF84BB80EF81BBEAE6C8
S1130200F0E080818B60808389B7836089BF7894B4
S1130210809112019091130168DF809112019091F5
S113022013010196909313018093120188EE93E0D9
S11302304BDF809112019091130143974CF310927C
S10F0240130110921201E4CFF894FFCFD8
S113024C3F065B4F666D7D077F6F777C395E7971F6
S105025CF900A3
S9030000FC
