S01200004F7064726163687420342E7372656389
S113000045C0000072C000007AC000005CC000005F
S11300105AC0000058C0000056C0000054C0000080
S113002052C0000050C000004EC000004CC0000090
S11300304AC0000048C0000046C0000044C00000A0
S113004042C0000040C000003EC000003CC00000B0
S11300503AC0000038C0000036C0000034C00000C0
S113006032C0000030C000002EC000002CC00000D0
S11300702AC0000028C0000026C0000024C00000E0
S113008022C0000020C000001EC0000011241FBEBA
S1130090CFEFD0E1DEBFCDBF11E0A0E0B1E0E6E5F7
S11300A0F1E000E00BBF02C007900D92AC34B10741
S11300B0D9F721E0ACE4B1E001C01D92AC34B20741
S11300C0E1F727D046C09CCF181619066CF420E03F
S11300D030E0EFECF7E03197F1F700C000002F5F5C
S11300E03F4F28173907A9F708951F920F920FB6AB
S11300F00F9211240F900FBE0F901F9018951F920E
S11301000F920FB60F9211240F900FBE0F901F90F5
S113011018958FEF84BB80EF81BBEAE6F0E0808125
S11301208B60808389B7836089BF789400E011E095
S1130130F80181819281892BD9F3E801888185BBFB
S113014089819A81C1DF239689819A81892BB1F7AC
S1090150EFCFF894FFCF8D
S11301560196000296000496000896001096002068
S113016696000132000232000432000832001032D6
S113017600203200012C01022C01042C01082C0160
S1130186102C01202C010132000232000432000836
S10F019632001032002032000000000093
S9030000FC
