S01C00003433334D487A526563656976657253656E6465722E73726563C9
S113000045C0000054C0000051C000004FC00000B3
S11300104DC000004BC0000049C0000047C00000B4
S113002045C0000043C0000041C000003FC00000C4
S11300303DC000003BC0000039C0000037C00000D4
S113004035C0000033C0000031C000002FC00000E4
S11300502DC000002BC0000029C0000027C00000F4
S113006025C0000023C0000021C000001FC0000004
S11300701DC000001BC0000019C0000017C0000014
S113008015C0000013C0000011C0000011241FBEE1
S1130090CFEFD0E1DEBFCDBF21E0A0E0B1E001C0F1
S11300A01D92AF30B207E1F731D13EC1A9CF1F9203
S11300B00F920FB60F9211242F933F934F935F9398
S11300C06F937F938F939F93AF93BF9380916A00B5
S11300D0823009F082C08091020190910301892B42
S11300E009F477C0209105013091060129303105CA
S11300F00CF06FC084B590E0A0E0B0E080930701FD
S113010090930801A0930901B0930A01AC01BD01C9
S11301104250510961097109433051056105710566
S113012070F480910401882319F0880F80930401EE
S11301302F5F3F4F309306012093050125C006979A
S1130140A109B1090397A105B10598F480910401AF
S1130150811104C081E08093040104C0880F816090
S1130160809304012F5F3F4F3093060120930501D4
S11301700BC010920401109203011092020110921C
S113018006011092050125C080910201909103019E
S11301900197F9F480910501909106010897C9F43B
S11301A08091000190910101892B59F480910401FF
S11301B083B98FEF8BBB81E090E090930101809332
S11301C00001109203011092020110920601109294
S11301D0050183E080936A0022C08091020190911E
S11301E00301892B89F484B590E0A0E0B0E007977F
S11301F0A109B1090797A105B10530F481E090E0A8
S11302009093030180930201109207011092080158
S11302101092090110920A0182E080936A00109200
S11302200B0110920C0110920D0110920E0114BCDE
S1130230BF91AF919F918F917F916F915F914F91FA
S11302403F912F910F900FBE0F901F90189585B579
S1130250846085BD14BCEAE6F0E08081836080831D
S113026089B7816089BF78940895181619066CF4CB
S113027020E030E0EFECF7E03197F1F700C0000048
S11302802F5F3F4F82179307A9F708951816190691
S11302905CF420E030E042E04A95F1F700C02F5FC3
S11302A03F4F82179307B9F70895DF92EF92FF92B9
S11302B00F931F93CF93DF93D82F18BA84E690E05F
S11302C0E5DFC8E01FEFF12C00E00F2EF4E6DF2E8F
S11302D0F02DE12C18BBDD231CF48D2D9E2D02C0C6
S11302E08F2D902F8C599F4FD1DF18BA82E390E065
S11302F0CDDFDD0FC15071F78FEF88BBDF91CF9158
S11303001F910F91FF90EF90DF9008958FEF8ABBBC
S113031087BB11BA82B91BBA13B899DF8DECC5DF5C
S10F032081E090E0A2DFFACFF894FFCF58
S9030000FC
