S01100004F70647261636874312E73726563AD
S113000045C00000BEC00000C6C0000054C00000CF
S113001052C0000050C000004EC000004CC00000A0
S11300204AC0000048C0000046C0000044C00000B0
S113003042C0000040C000003EC000003CC00000C0
S11300403AC0000038C0000036C0000034C00000D0
S113005032C0000030C000002EC000002CC00000E0
S11300602AC0000028C0000026C0000024C00000F0
S113007022C0000020C000001EC000001CC0000000
S11300801AC0000018C0000016C0000011241FBED2
S1130090CFEFD0E1DEBFCDBF11E0A0E0B1E0E4E0FE
S11300A0F2E000E00BBF02C007900D92A632B10748
S11300B0D9F77BD0A5C0A4CF982F907F95BBAB9ADE
S11300C0EFECF7E03197F1F700C0000094E095BB46
S11300D0F0E18F9FC001112485BBAB9A8FEC97E0B0
S11300E00197F1F700C0000015BA0895982F907F8A
S11300F095BB95B39C6095BBEFECF7E03197F1F7B6
S113010000C0000094E095BBF0E18F9FC001112472
S113011085BB85B38C6085BB8FEC97E00197F1F7C5
S113012000C0000015BA0895CF93DF93EC018881D5
S1130130882329F02196DADF89918111FCCFDF91A0
S1130140CF91089582E0B8DF88E2B6DF8CE0B4DFB7
S113015086E0B2DF80E8B0CF089588E1ADCF08959E
S1130160181619066CF420E030E0EFECF7E0319754
S1130170F1F700C000002F5F3F4F28173907A9F798
S113018008951F920F920FB60F9211240F900FBE75
S11301900F901F9018951F920F920FB60F92112473
S11301A00F900FBE0F901F901895CF93DF93CDB78C
S11301B0DEB7A6970FB6F894DEBF0FBECDBF8FEFA4
S11301C084BB15BA84BB80EF81BBEAE6F0E0808192
S11301D08B60808389B7836089BF7894B3DF86E2BC
S11301E0E0E0F1E0DE01119601900D928A95E1F7CD
S11301F0CE01019699DF84EF91E0B2DFAEDFFBCF51
S1070200F894FFCF9C
S113020454696D6F6E20697320686565726C696AE0
S11302146B202D2054696D6F6E20697320686565A9
S1090224726C696A6B00B4
S9030000FC
