S01100004F70647261636874322E73726563AC
S113000045C0000060C000005EC000005CC000008D
S11300105AC0000058C0000056C0000054C0000080
S113002052C0000050C0000060C000004CC000007E
S11300304AC0000048C0000046C0000044C00000A0
S113004042C0000040C000003EC000003CC00000B0
S11300503AC0000038C0000036C0000034C00000C0
S113006032C0000030C000002EC000002CC00000D0
S11300702AC0000028C0000026C0000024C00000E0
S113008022C0000020C000001EC0000011241FBEBA
S1130090CFEFD0E1DEBFCDBF11E0A0E0B1E0E6E5F7
S11300A0F1E000E00BBF02C007900D92A230B1074F
S11300B0D9F721E0A2E0B1E001C01D92A430B2075B
S11300C0E1F736D046C09CCF181619066CF420E030
S11300D030E0EFECF7E03197F1F700C000002F5F5C
S11300E03F4F28173907A9F708951F920F920FB6AB
S11300F00F9211248F939F93809102019091030199
S1130100019690930301809302019F918F910F9028
S11301100FBE0F901F9018958091000183BD87B783
S1130120806487BF8FB780628FBF8FE185BD0895DC
S113013081B3807481BB8FEF8ABB87BBEDDFC2E0E4
S1130140D1E084B58BBB888188BB8AE090E0BCDFBA
S1090150F8CFF894FFCF84
S10501560A0099
S9030000FC
